{
  "contractName": "EarlyAccessGame",
  "abi": [
    {
      "inputs": [
        {
          "internalType": "string",
          "name": "name",
          "type": "string"
        },
        {
          "internalType": "string",
          "name": "symbol",
          "type": "string"
        },
        {
          "internalType": "string",
          "name": "baseTokenURI",
          "type": "string"
        },
        {
          "internalType": "uint256",
          "name": "basePrice",
          "type": "uint256"
        }
      ],
      "stateMutability": "nonpayable",
      "type": "constructor"
    },
    {
      "anonymous": false,
      "inputs": [
        {
          "indexed": true,
          "internalType": "address",
          "name": "owner",
          "type": "address"
        },
        {
          "indexed": true,
          "internalType": "address",
          "name": "approved",
          "type": "address"
        },
        {
          "indexed": true,
          "internalType": "uint256",
          "name": "tokenId",
          "type": "uint256"
        }
      ],
      "name": "Approval",
      "type": "event"
    },
    {
      "anonymous": false,
      "inputs": [
        {
          "indexed": true,
          "internalType": "address",
          "name": "owner",
          "type": "address"
        },
        {
          "indexed": true,
          "internalType": "address",
          "name": "operator",
          "type": "address"
        },
        {
          "indexed": false,
          "internalType": "bool",
          "name": "approved",
          "type": "bool"
        }
      ],
      "name": "ApprovalForAll",
      "type": "event"
    },
    {
      "anonymous": false,
      "inputs": [
        {
          "indexed": true,
          "internalType": "bytes32",
          "name": "role",
          "type": "bytes32"
        },
        {
          "indexed": true,
          "internalType": "bytes32",
          "name": "previousAdminRole",
          "type": "bytes32"
        },
        {
          "indexed": true,
          "internalType": "bytes32",
          "name": "newAdminRole",
          "type": "bytes32"
        }
      ],
      "name": "RoleAdminChanged",
      "type": "event"
    },
    {
      "anonymous": false,
      "inputs": [
        {
          "indexed": true,
          "internalType": "bytes32",
          "name": "role",
          "type": "bytes32"
        },
        {
          "indexed": true,
          "internalType": "address",
          "name": "account",
          "type": "address"
        },
        {
          "indexed": true,
          "internalType": "address",
          "name": "sender",
          "type": "address"
        }
      ],
      "name": "RoleGranted",
      "type": "event"
    },
    {
      "anonymous": false,
      "inputs": [
        {
          "indexed": true,
          "internalType": "bytes32",
          "name": "role",
          "type": "bytes32"
        },
        {
          "indexed": true,
          "internalType": "address",
          "name": "account",
          "type": "address"
        },
        {
          "indexed": true,
          "internalType": "address",
          "name": "sender",
          "type": "address"
        }
      ],
      "name": "RoleRevoked",
      "type": "event"
    },
    {
      "anonymous": false,
      "inputs": [
        {
          "indexed": true,
          "internalType": "address",
          "name": "from",
          "type": "address"
        },
        {
          "indexed": true,
          "internalType": "address",
          "name": "to",
          "type": "address"
        },
        {
          "indexed": true,
          "internalType": "uint256",
          "name": "tokenId",
          "type": "uint256"
        }
      ],
      "name": "Transfer",
      "type": "event"
    },
    {
      "inputs": [],
      "name": "DEFAULT_ADMIN_ROLE",
      "outputs": [
        {
          "internalType": "bytes32",
          "name": "",
          "type": "bytes32"
        }
      ],
      "stateMutability": "view",
      "type": "function",
      "constant": true
    },
    {
      "inputs": [],
      "name": "MINTER_ROLE",
      "outputs": [
        {
          "internalType": "bytes32",
          "name": "",
          "type": "bytes32"
        }
      ],
      "stateMutability": "view",
      "type": "function",
      "constant": true
    },
    {
      "inputs": [
        {
          "internalType": "address",
          "name": "to",
          "type": "address"
        },
        {
          "internalType": "uint256",
          "name": "tokenId",
          "type": "uint256"
        }
      ],
      "name": "approve",
      "outputs": [],
      "stateMutability": "nonpayable",
      "type": "function"
    },
    {
      "inputs": [
        {
          "internalType": "address",
          "name": "owner",
          "type": "address"
        }
      ],
      "name": "balanceOf",
      "outputs": [
        {
          "internalType": "uint256",
          "name": "",
          "type": "uint256"
        }
      ],
      "stateMutability": "view",
      "type": "function",
      "constant": true
    },
    {
      "inputs": [
        {
          "internalType": "uint256",
          "name": "tokenId",
          "type": "uint256"
        }
      ],
      "name": "buy",
      "outputs": [],
      "stateMutability": "payable",
      "type": "function",
      "payable": true
    },
    {
      "inputs": [
        {
          "internalType": "uint256",
          "name": "tokenId",
          "type": "uint256"
        }
      ],
      "name": "getApproved",
      "outputs": [
        {
          "internalType": "address",
          "name": "",
          "type": "address"
        }
      ],
      "stateMutability": "view",
      "type": "function",
      "constant": true
    },
    {
      "inputs": [
        {
          "internalType": "bytes32",
          "name": "role",
          "type": "bytes32"
        }
      ],
      "name": "getRoleAdmin",
      "outputs": [
        {
          "internalType": "bytes32",
          "name": "",
          "type": "bytes32"
        }
      ],
      "stateMutability": "view",
      "type": "function",
      "constant": true
    },
    {
      "inputs": [
        {
          "internalType": "bytes32",
          "name": "role",
          "type": "bytes32"
        },
        {
          "internalType": "uint256",
          "name": "index",
          "type": "uint256"
        }
      ],
      "name": "getRoleMember",
      "outputs": [
        {
          "internalType": "address",
          "name": "",
          "type": "address"
        }
      ],
      "stateMutability": "view",
      "type": "function",
      "constant": true
    },
    {
      "inputs": [
        {
          "internalType": "bytes32",
          "name": "role",
          "type": "bytes32"
        }
      ],
      "name": "getRoleMemberCount",
      "outputs": [
        {
          "internalType": "uint256",
          "name": "",
          "type": "uint256"
        }
      ],
      "stateMutability": "view",
      "type": "function",
      "constant": true
    },
    {
      "inputs": [
        {
          "internalType": "bytes32",
          "name": "role",
          "type": "bytes32"
        },
        {
          "internalType": "address",
          "name": "account",
          "type": "address"
        }
      ],
      "name": "grantRole",
      "outputs": [],
      "stateMutability": "nonpayable",
      "type": "function"
    },
    {
      "inputs": [
        {
          "internalType": "bytes32",
          "name": "role",
          "type": "bytes32"
        },
        {
          "internalType": "address",
          "name": "account",
          "type": "address"
        }
      ],
      "name": "hasRole",
      "outputs": [
        {
          "internalType": "bool",
          "name": "",
          "type": "bool"
        }
      ],
      "stateMutability": "view",
      "type": "function",
      "constant": true
    },
    {
      "inputs": [
        {
          "internalType": "address",
          "name": "owner",
          "type": "address"
        },
        {
          "internalType": "address",
          "name": "operator",
          "type": "address"
        }
      ],
      "name": "isApprovedForAll",
      "outputs": [
        {
          "internalType": "bool",
          "name": "",
          "type": "bool"
        }
      ],
      "stateMutability": "view",
      "type": "function",
      "constant": true
    },
    {
      "inputs": [
        {
          "internalType": "uint256",
          "name": "tokenId",
          "type": "uint256"
        }
      ],
      "name": "isForSale",
      "outputs": [
        {
          "internalType": "bool",
          "name": "",
          "type": "bool"
        }
      ],
      "stateMutability": "view",
      "type": "function",
      "constant": true
    },
    {
      "inputs": [],
      "name": "name",
      "outputs": [
        {
          "internalType": "string",
          "name": "",
          "type": "string"
        }
      ],
      "stateMutability": "view",
      "type": "function",
      "constant": true
    },
    {
      "inputs": [
        {
          "internalType": "uint256",
          "name": "tokenId",
          "type": "uint256"
        }
      ],
      "name": "ownerOf",
      "outputs": [
        {
          "internalType": "address",
          "name": "",
          "type": "address"
        }
      ],
      "stateMutability": "view",
      "type": "function",
      "constant": true
    },
    {
      "inputs": [
        {
          "internalType": "uint256",
          "name": "tokenId",
          "type": "uint256"
        }
      ],
      "name": "priceOf",
      "outputs": [
        {
          "internalType": "uint256",
          "name": "",
          "type": "uint256"
        }
      ],
      "stateMutability": "view",
      "type": "function",
      "constant": true
    },
    {
      "inputs": [
        {
          "internalType": "bytes32",
          "name": "role",
          "type": "bytes32"
        },
        {
          "internalType": "address",
          "name": "account",
          "type": "address"
        }
      ],
      "name": "renounceRole",
      "outputs": [],
      "stateMutability": "nonpayable",
      "type": "function"
    },
    {
      "inputs": [
        {
          "internalType": "bytes32",
          "name": "role",
          "type": "bytes32"
        },
        {
          "internalType": "address",
          "name": "account",
          "type": "address"
        }
      ],
      "name": "revokeRole",
      "outputs": [],
      "stateMutability": "nonpayable",
      "type": "function"
    },
    {
      "inputs": [
        {
          "internalType": "address",
          "name": "from",
          "type": "address"
        },
        {
          "internalType": "address",
          "name": "to",
          "type": "address"
        },
        {
          "internalType": "uint256",
          "name": "tokenId",
          "type": "uint256"
        }
      ],
      "name": "safeTransferFrom",
      "outputs": [],
      "stateMutability": "nonpayable",
      "type": "function"
    },
    {
      "inputs": [
        {
          "internalType": "address",
          "name": "from",
          "type": "address"
        },
        {
          "internalType": "address",
          "name": "to",
          "type": "address"
        },
        {
          "internalType": "uint256",
          "name": "tokenId",
          "type": "uint256"
        },
        {
          "internalType": "bytes",
          "name": "_data",
          "type": "bytes"
        }
      ],
      "name": "safeTransferFrom",
      "outputs": [],
      "stateMutability": "nonpayable",
      "type": "function"
    },
    {
      "inputs": [
        {
          "internalType": "address",
          "name": "operator",
          "type": "address"
        },
        {
          "internalType": "bool",
          "name": "approved",
          "type": "bool"
        }
      ],
      "name": "setApprovalForAll",
      "outputs": [],
      "stateMutability": "nonpayable",
      "type": "function"
    },
    {
      "inputs": [
        {
          "internalType": "uint256",
          "name": "tokenId",
          "type": "uint256"
        },
        {
          "internalType": "uint256",
          "name": "price",
          "type": "uint256"
        }
      ],
      "name": "setPrice",
      "outputs": [],
      "stateMutability": "nonpayable",
      "type": "function"
    },
    {
      "inputs": [],
      "name": "symbol",
      "outputs": [
        {
          "internalType": "string",
          "name": "",
          "type": "string"
        }
      ],
      "stateMutability": "view",
      "type": "function",
      "constant": true
    },
    {
      "inputs": [
        {
          "internalType": "uint256",
          "name": "tokenId",
          "type": "uint256"
        }
      ],
      "name": "toggleForSale",
      "outputs": [],
      "stateMutability": "nonpayable",
      "type": "function"
    },
    {
      "inputs": [
        {
          "internalType": "uint256",
          "name": "index",
          "type": "uint256"
        }
      ],
      "name": "tokenByIndex",
      "outputs": [
        {
          "internalType": "uint256",
          "name": "",
          "type": "uint256"
        }
      ],
      "stateMutability": "view",
      "type": "function",
      "constant": true
    },
    {
      "inputs": [
        {
          "internalType": "address",
          "name": "owner",
          "type": "address"
        },
        {
          "internalType": "uint256",
          "name": "index",
          "type": "uint256"
        }
      ],
      "name": "tokenOfOwnerByIndex",
      "outputs": [
        {
          "internalType": "uint256",
          "name": "",
          "type": "uint256"
        }
      ],
      "stateMutability": "view",
      "type": "function",
      "constant": true
    },
    {
      "inputs": [],
      "name": "totalSupply",
      "outputs": [
        {
          "internalType": "uint256",
          "name": "",
          "type": "uint256"
        }
      ],
      "stateMutability": "view",
      "type": "function",
      "constant": true
    },
    {
      "inputs": [
        {
          "internalType": "address",
          "name": "from",
          "type": "address"
        },
        {
          "internalType": "address",
          "name": "to",
          "type": "address"
        },
        {
          "internalType": "uint256",
          "name": "tokenId",
          "type": "uint256"
        }
      ],
      "name": "transferFrom",
      "outputs": [],
      "stateMutability": "nonpayable",
      "type": "function"
    },
    {
      "inputs": [
        {
          "internalType": "address",
          "name": "to",
          "type": "address"
        },
        {
          "internalType": "uint256",
          "name": "count",
          "type": "uint256"
        }
      ],
      "name": "mintMultiple",
      "outputs": [],
      "stateMutability": "nonpayable",
      "type": "function"
    },
    {
      "inputs": [
        {
          "internalType": "address",
          "name": "to",
          "type": "address"
        }
      ],
      "name": "mint",
      "outputs": [],
      "stateMutability": "nonpayable",
      "type": "function"
    },
    {
      "inputs": [
        {
          "internalType": "bytes4",
          "name": "interfaceId",
          "type": "bytes4"
        }
      ],
      "name": "supportsInterface",
      "outputs": [
        {
          "internalType": "bool",
          "name": "",
          "type": "bool"
        }
      ],
      "stateMutability": "view",
      "type": "function",
      "constant": true
    },
    {
      "inputs": [
        {
          "internalType": "uint256",
          "name": "tokenId",
          "type": "uint256"
        }
      ],
      "name": "tokenURI",
      "outputs": [
        {
          "internalType": "string",
          "name": "",
          "type": "string"
        }
      ],
      "stateMutability": "view",
      "type": "function",
      "constant": true
    },
    {
      "inputs": [],
      "name": "baseURI",
      "outputs": [
        {
          "internalType": "string",
          "name": "",
          "type": "string"
        }
      ],
      "stateMutability": "view",
      "type": "function",
      "constant": true
    }
  ],
  "bytecode": "0x60806040523480156200001157600080fd5b5060405162005133380380620051338339818101604052810190620000379190620005f8565b838381600090805190602001906200005192919062000370565b5080600190805190602001906200006a92919062000370565b50505081601190805190602001906200008592919062000370565b5080600f81905550620000ce7f9f2df0fed2c77648de5860a4cc508cd0818c85b8b8a1ab4ceeef8d981c8956a6620000c2620000d860201b60201c565b620000e060201b60201c565b505050506200072c565b600033905090565b620000f28282620000f660201b60201c565b5050565b6200010d82826200013e60201b620015b41760201c565b6200013981600860008581526020019081526020016000206200023060201b620016951790919060201c565b505050565b6200015082826200026860201b60201c565b6200022c5760016007600084815260200190815260200160002060000160008373ffffffffffffffffffffffffffffffffffffffff1673ffffffffffffffffffffffffffffffffffffffff16815260200190815260200160002060006101000a81548160ff021916908315150217905550620001d1620000d860201b60201c565b73ffffffffffffffffffffffffffffffffffffffff168173ffffffffffffffffffffffffffffffffffffffff16837f2f8788117e7eff1d82e926ec794901d17c78024a50270940304540a733656f0d60405160405180910390a45b5050565b600062000260836000018373ffffffffffffffffffffffffffffffffffffffff1660001b620002d360201b60201c565b905092915050565b60006007600084815260200190815260200160002060000160008373ffffffffffffffffffffffffffffffffffffffff1673ffffffffffffffffffffffffffffffffffffffff16815260200190815260200160002060009054906101000a900460ff16905092915050565b6000620002e783836200034d60201b60201c565b6200034257826000018290806001815401808255809150506001900390600052602060002001600090919091909150558260000180549050836001016000848152602001908152602001600020819055506001905062000347565b600090505b92915050565b600080836001016000848152602001908152602001600020541415905092915050565b8280546200037e90620006f6565b90600052602060002090601f016020900481019282620003a25760008555620003ee565b82601f10620003bd57805160ff1916838001178555620003ee565b82800160010185558215620003ee579182015b82811115620003ed578251825591602001919060010190620003d0565b5b509050620003fd919062000401565b5090565b5b808211156200041c57600081600090555060010162000402565b5090565b6000604051905090565b600080fd5b600080fd5b600080fd5b600080fd5b6000601f19601f8301169050919050565b7f4e487b7100000000000000000000000000000000000000000000000000000000600052604160045260246000fd5b62000489826200043e565b810181811067ffffffffffffffff82111715620004ab57620004aa6200044f565b5b80604052505050565b6000620004c062000420565b9050620004ce82826200047e565b919050565b600067ffffffffffffffff821115620004f157620004f06200044f565b5b620004fc826200043e565b9050602081019050919050565b60005b83811015620005295780820151818401526020810190506200050c565b8381111562000539576000848401525b50505050565b6000620005566200055084620004d3565b620004b4565b90508281526020810184848401111562000575576200057462000439565b5b6200058284828562000509565b509392505050565b600082601f830112620005a257620005a162000434565b5b8151620005b48482602086016200053f565b91505092915050565b6000819050919050565b620005d281620005bd565b8114620005de57600080fd5b50565b600081519050620005f281620005c7565b92915050565b600080600080608085870312156200061557620006146200042a565b5b600085015167ffffffffffffffff8111156200063657620006356200042f565b5b62000644878288016200058a565b945050602085015167ffffffffffffffff8111156200066857620006676200042f565b5b62000676878288016200058a565b935050604085015167ffffffffffffffff8111156200069a57620006996200042f565b5b620006a8878288016200058a565b9250506060620006bb87828801620005e1565b91505092959194509250565b7f4e487b7100000000000000000000000000000000000000000000000000000000600052602260045260246000fd5b600060028204905060018216806200070f57607f821691505b60208210811415620007265762000725620006c7565b5b50919050565b6149f7806200073c6000396000f3fe6080604052600436106101ee5760003560e01c80638546d0021161010d578063b88d4fde116100a0578063d53913931161006f578063d53913931461077d578063d547741f146107a8578063d96a094a146107d1578063e985e9c5146107ed578063f7d975771461082a576101ee565b8063b88d4fde1461069d578063b9186d7d146106c6578063c87b56dd14610703578063ca15c87314610740576101ee565b8063a217fddf116100dc578063a217fddf146105f7578063a22cb46514610622578063a32018b91461064b578063b3fa4a4c14610674576101ee565b80638546d002146105155780639010d07c1461055257806391d148541461058f57806395d89b41146105cc576101ee565b80632f745c59116101855780636352211e116101545780636352211e146104475780636a627842146104845780636c0360eb146104ad57806370a08231146104d8576101ee565b80632f745c591461037b57806336568abe146103b857806342842e0e146103e15780634f6ccce71461040a576101ee565b806318160ddd116101c157806318160ddd146102c157806323b872dd146102ec578063248a9ca3146103155780632f2ff15d14610352576101ee565b806301ffc9a7146101f357806306fdde0314610230578063081812fc1461025b578063095ea7b314610298575b600080fd5b3480156101ff57600080fd5b5061021a6004803603810190610215919061328a565b610853565b60405161022791906132d2565b60405180910390f35b34801561023c57600080fd5b50610245610865565b6040516102529190613386565b60405180910390f35b34801561026757600080fd5b50610282600480360381019061027d91906133de565b6108f7565b60405161028f919061344c565b60405180910390f35b3480156102a457600080fd5b506102bf60048036038101906102ba9190613493565b61097c565b005b3480156102cd57600080fd5b506102d6610a94565b6040516102e391906134e2565b60405180910390f35b3480156102f857600080fd5b50610313600480360381019061030e91906134fd565b610aa1565b005b34801561032157600080fd5b5061033c60048036038101906103379190613586565b610b01565b60405161034991906135c2565b60405180910390f35b34801561035e57600080fd5b50610379600480360381019061037491906135dd565b610b21565b005b34801561038757600080fd5b506103a2600480360381019061039d9190613493565b610b4a565b6040516103af91906134e2565b60405180910390f35b3480156103c457600080fd5b506103df60048036038101906103da91906135dd565b610bef565b005b3480156103ed57600080fd5b50610408600480360381019061040391906134fd565b610c72565b005b34801561041657600080fd5b50610431600480360381019061042c91906133de565b610c92565b60405161043e91906134e2565b60405180910390f35b34801561045357600080fd5b5061046e600480360381019061046991906133de565b610d03565b60405161047b919061344c565b60405180910390f35b34801561049057600080fd5b506104ab60048036038101906104a6919061361d565b610db5565b005b3480156104b957600080fd5b506104c2610e45565b6040516104cf9190613386565b60405180910390f35b3480156104e457600080fd5b506104ff60048036038101906104fa919061361d565b610e54565b60405161050c91906134e2565b60405180910390f35b34801561052157600080fd5b5061053c600480360381019061053791906133de565b610f0c565b60405161054991906132d2565b60405180910390f35b34801561055e57600080fd5b506105796004803603810190610574919061364a565b610f36565b604051610586919061344c565b60405180910390f35b34801561059b57600080fd5b506105b660048036038101906105b191906135dd565b610f65565b6040516105c391906132d2565b60405180910390f35b3480156105d857600080fd5b506105e1610fd0565b6040516105ee9190613386565b60405180910390f35b34801561060357600080fd5b5061060c611062565b60405161061991906135c2565b60405180910390f35b34801561062e57600080fd5b50610649600480360381019061064491906136b6565b611069565b005b34801561065757600080fd5b50610672600480360381019061066d91906133de565b61107f565b005b34801561068057600080fd5b5061069b60048036038101906106969190613493565b6111bd565b005b3480156106a957600080fd5b506106c460048036038101906106bf919061382b565b611259565b005b3480156106d257600080fd5b506106ed60048036038101906106e891906133de565b6112bb565b6040516106fa91906134e2565b60405180910390f35b34801561070f57600080fd5b5061072a600480360381019061072591906133de565b6112d8565b6040516107379190613386565b60405180910390f35b34801561074c57600080fd5b5061076760048036038101906107629190613586565b6112ea565b60405161077491906134e2565b60405180910390f35b34801561078957600080fd5b5061079261130e565b60405161079f91906135c2565b60405180910390f35b3480156107b457600080fd5b506107cf60048036038101906107ca91906135dd565b611332565b005b6107eb60048036038101906107e691906133de565b61135b565b005b3480156107f957600080fd5b50610814600480360381019061080f91906138ae565b611487565b60405161082191906132d2565b60405180910390f35b34801561083657600080fd5b50610851600480360381019061084c91906138ee565b61151b565b005b600061085e826116c5565b9050919050565b6060600080546108749061395d565b80601f01602080910402602001604051908101604052809291908181526020018280546108a09061395d565b80156108ed5780601f106108c2576101008083540402835291602001916108ed565b820191906000526020600020905b8154815290600101906020018083116108d057829003601f168201915b5050505050905090565b60006109028261173f565b610941576040517f08c379a000000000000000000000000000000000000000000000000000000000815260040161093890613a01565b60405180910390fd5b6004600083815260200190815260200160002060009054906101000a900473ffffffffffffffffffffffffffffffffffffffff169050919050565b600061098782610d03565b90508073ffffffffffffffffffffffffffffffffffffffff168373ffffffffffffffffffffffffffffffffffffffff1614156109f8576040517f08c379a00000000000000000000000000000000000000000000000000000000081526004016109ef90613a93565b60405180910390fd5b8073ffffffffffffffffffffffffffffffffffffffff16610a176117ab565b73ffffffffffffffffffffffffffffffffffffffff161480610a465750610a4581610a406117ab565b611487565b5b610a85576040517f08c379a0000000000000000000000000000000000000000000000000000000008152600401610a7c90613b25565b60405180910390fd5b610a8f83836117b3565b505050565b6000600b80549050905090565b610ab2610aac6117ab565b8261186c565b610af1576040517f08c379a0000000000000000000000000000000000000000000000000000000008152600401610ae890613bb7565b60405180910390fd5b610afc83838361194a565b505050565b600060076000838152602001908152602001600020600101549050919050565b610b2a82610b01565b610b3b81610b366117ab565b611ba6565b610b458383611c43565b505050565b6000610b5583610e54565b8210610b96576040517f08c379a0000000000000000000000000000000000000000000000000000000008152600401610b8d90613c49565b60405180910390fd5b600960008473ffffffffffffffffffffffffffffffffffffffff1673ffffffffffffffffffffffffffffffffffffffff168152602001908152602001600020600083815260200190815260200160002054905092915050565b610bf76117ab565b73ffffffffffffffffffffffffffffffffffffffff168173ffffffffffffffffffffffffffffffffffffffff1614610c64576040517f08c379a0000000000000000000000000000000000000000000000000000000008152600401610c5b90613cdb565b60405180910390fd5b610c6e8282611c77565b5050565b610c8d83838360405180602001604052806000815250611259565b505050565b6000610c9c610a94565b8210610cdd576040517f08c379a0000000000000000000000000000000000000000000000000000000008152600401610cd490613d6d565b60405180910390fd5b600b8281548110610cf157610cf0613d8d565b5b90600052602060002001549050919050565b6000806002600084815260200190815260200160002060009054906101000a900473ffffffffffffffffffffffffffffffffffffffff169050600073ffffffffffffffffffffffffffffffffffffffff168173ffffffffffffffffffffffffffffffffffffffff161415610dac576040517f08c379a0000000000000000000000000000000000000000000000000000000008152600401610da390613e2e565b60405180910390fd5b80915050919050565b610de67f9f2df0fed2c77648de5860a4cc508cd0818c85b8b8a1ab4ceeef8d981c8956a6610de16117ab565b610f65565b610e25576040517f08c379a0000000000000000000000000000000000000000000000000000000008152600401610e1c90613ec0565b60405180910390fd5b610e3881610e336010611cab565b611cb9565b610e426010611cc7565b50565b6060610e4f611cdd565b905090565b60008073ffffffffffffffffffffffffffffffffffffffff168273ffffffffffffffffffffffffffffffffffffffff161415610ec5576040517f08c379a0000000000000000000000000000000000000000000000000000000008152600401610ebc90613f52565b60405180910390fd5b600360008373ffffffffffffffffffffffffffffffffffffffff1673ffffffffffffffffffffffffffffffffffffffff168152602001908152602001600020549050919050565b6000600d600083815260200190815260200160002060009054906101000a900460ff169050919050565b6000610f5d8260086000868152602001908152602001600020611d6f90919063ffffffff16565b905092915050565b60006007600084815260200190815260200160002060000160008373ffffffffffffffffffffffffffffffffffffffff1673ffffffffffffffffffffffffffffffffffffffff16815260200190815260200160002060009054906101000a900460ff16905092915050565b606060018054610fdf9061395d565b80601f016020809104026020016040519081016040528092919081815260200182805461100b9061395d565b80156110585780601f1061102d57610100808354040283529160200191611058565b820191906000526020600020905b81548152906001019060200180831161103b57829003601f168201915b5050505050905090565b6000801b81565b61107b6110746117ab565b8383611d89565b5050565b600073ffffffffffffffffffffffffffffffffffffffff163373ffffffffffffffffffffffffffffffffffffffff1614156110b957600080fd5b6110c16117ab565b73ffffffffffffffffffffffffffffffffffffffff166110e082610d03565b73ffffffffffffffffffffffffffffffffffffffff1614611136576040517f08c379a000000000000000000000000000000000000000000000000000000000815260040161112d90613fbe565b60405180910390fd5b600d600082815260200190815260200160002060009054906101000a900460ff161561118d576000600d600083815260200190815260200160002060006101000a81548160ff0219169083151502179055506111ba565b6001600d600083815260200190815260200160002060006101000a81548160ff0219169083151502179055505b50565b6111ee7f9f2df0fed2c77648de5860a4cc508cd0818c85b8b8a1ab4ceeef8d981c8956a66111e96117ab565b610f65565b61122d576040517f08c379a000000000000000000000000000000000000000000000000000000000815260040161122490613ec0565b60405180910390fd5b60005b818110156112545761124183610db5565b808061124c9061400d565b915050611230565b505050565b61126a6112646117ab565b8361186c565b6112a9576040517f08c379a00000000000000000000000000000000000000000000000000000000081526004016112a090613bb7565b60405180910390fd5b6112b584848484611ef6565b50505050565b6000600e6000838152602001908152602001600020549050919050565b60606112e382611f52565b9050919050565b6000611307600860008481526020019081526020016000206120a4565b9050919050565b7f9f2df0fed2c77648de5860a4cc508cd0818c85b8b8a1ab4ceeef8d981c8956a681565b61133b82610b01565b61134c816113476117ab565b611ba6565b6113568383611c77565b505050565b600073ffffffffffffffffffffffffffffffffffffffff163373ffffffffffffffffffffffffffffffffffffffff16141561139557600080fd5b600d600082815260200190815260200160002060009054906101000a900460ff166113f5576040517f08c379a00000000000000000000000000000000000000000000000000000000081526004016113ec906140a2565b60405180910390fd5b600e60008281526020019081526020016000205434101561141557600080fd5b600061142082610d03565b90508073ffffffffffffffffffffffffffffffffffffffff166108fc349081150290604051600060405180830381858888f19350505050158015611468573d6000803e3d6000fd5b5061148361147583610d03565b61147d6117ab565b8461194a565b5050565b6000600560008473ffffffffffffffffffffffffffffffffffffffff1673ffffffffffffffffffffffffffffffffffffffff16815260200190815260200160002060008373ffffffffffffffffffffffffffffffffffffffff1673ffffffffffffffffffffffffffffffffffffffff16815260200190815260200160002060009054906101000a900460ff16905092915050565b6115236117ab565b73ffffffffffffffffffffffffffffffffffffffff1661154283610d03565b73ffffffffffffffffffffffffffffffffffffffff1614611598576040517f08c379a000000000000000000000000000000000000000000000000000000000815260040161158f90613fbe565b60405180910390fd5b80600e6000848152602001908152602001600020819055505050565b6115be8282610f65565b6116915760016007600084815260200190815260200160002060000160008373ffffffffffffffffffffffffffffffffffffffff1673ffffffffffffffffffffffffffffffffffffffff16815260200190815260200160002060006101000a81548160ff0219169083151502179055506116366117ab565b73ffffffffffffffffffffffffffffffffffffffff168173ffffffffffffffffffffffffffffffffffffffff16837f2f8788117e7eff1d82e926ec794901d17c78024a50270940304540a733656f0d60405160405180910390a45b5050565b60006116bd836000018373ffffffffffffffffffffffffffffffffffffffff1660001b6120b9565b905092915050565b60007f780e9d63000000000000000000000000000000000000000000000000000000007bffffffffffffffffffffffffffffffffffffffffffffffffffffffff1916827bffffffffffffffffffffffffffffffffffffffffffffffffffffffff19161480611738575061173782612129565b5b9050919050565b60008073ffffffffffffffffffffffffffffffffffffffff166002600084815260200190815260200160002060009054906101000a900473ffffffffffffffffffffffffffffffffffffffff1673ffffffffffffffffffffffffffffffffffffffff1614159050919050565b600033905090565b816004600083815260200190815260200160002060006101000a81548173ffffffffffffffffffffffffffffffffffffffff021916908373ffffffffffffffffffffffffffffffffffffffff160217905550808273ffffffffffffffffffffffffffffffffffffffff1661182683610d03565b73ffffffffffffffffffffffffffffffffffffffff167f8c5be1e5ebec7d5bd14f71427d1e84f3dd0314c0f7b2291e5b200ac8c7c3b92560405160405180910390a45050565b60006118778261173f565b6118b6576040517f08c379a00000000000000000000000000000000000000000000000000000000081526004016118ad90614134565b60405180910390fd5b60006118c183610d03565b90508073ffffffffffffffffffffffffffffffffffffffff168473ffffffffffffffffffffffffffffffffffffffff16148061193057508373ffffffffffffffffffffffffffffffffffffffff16611918846108f7565b73ffffffffffffffffffffffffffffffffffffffff16145b8061194157506119408185611487565b5b91505092915050565b8273ffffffffffffffffffffffffffffffffffffffff1661196a82610d03565b73ffffffffffffffffffffffffffffffffffffffff16146119c0576040517f08c379a00000000000000000000000000000000000000000000000000000000081526004016119b7906141c6565b60405180910390fd5b600073ffffffffffffffffffffffffffffffffffffffff168273ffffffffffffffffffffffffffffffffffffffff161415611a30576040517f08c379a0000000000000000000000000000000000000000000000000000000008152600401611a2790614258565b60405180910390fd5b611a3b8383836121a3565b611a466000826117b3565b6001600360008573ffffffffffffffffffffffffffffffffffffffff1673ffffffffffffffffffffffffffffffffffffffff1681526020019081526020016000206000828254611a969190614278565b925050819055506001600360008473ffffffffffffffffffffffffffffffffffffffff1673ffffffffffffffffffffffffffffffffffffffff1681526020019081526020016000206000828254611aed91906142ac565b92505081905550816002600083815260200190815260200160002060006101000a81548173ffffffffffffffffffffffffffffffffffffffff021916908373ffffffffffffffffffffffffffffffffffffffff160217905550808273ffffffffffffffffffffffffffffffffffffffff168473ffffffffffffffffffffffffffffffffffffffff167fddf252ad1be2c89b69c2b068fc378daa952ba7f163c4a11628f55a4df523b3ef60405160405180910390a4505050565b611bb08282610f65565b611c3f57611bd58173ffffffffffffffffffffffffffffffffffffffff1660146121b3565b611be38360001c60206121b3565b604051602001611bf49291906143d6565b6040516020818303038152906040526040517f08c379a0000000000000000000000000000000000000000000000000000000008152600401611c369190613386565b60405180910390fd5b5050565b611c4d82826115b4565b611c72816008600085815260200190815260200160002061169590919063ffffffff16565b505050565b611c8182826123ef565b611ca681600860008581526020019081526020016000206124d190919063ffffffff16565b505050565b600081600001549050919050565b611cc38282612501565b5050565b6001816000016000828254019250508190555050565b606060118054611cec9061395d565b80601f0160208091040260200160405190810160405280929190818152602001828054611d189061395d565b8015611d655780601f10611d3a57610100808354040283529160200191611d65565b820191906000526020600020905b815481529060010190602001808311611d4857829003601f168201915b5050505050905090565b6000611d7e8360000183612555565b60001c905092915050565b8173ffffffffffffffffffffffffffffffffffffffff168373ffffffffffffffffffffffffffffffffffffffff161415611df8576040517f08c379a0000000000000000000000000000000000000000000000000000000008152600401611def9061445c565b60405180910390fd5b80600560008573ffffffffffffffffffffffffffffffffffffffff1673ffffffffffffffffffffffffffffffffffffffff16815260200190815260200160002060008473ffffffffffffffffffffffffffffffffffffffff1673ffffffffffffffffffffffffffffffffffffffff16815260200190815260200160002060006101000a81548160ff0219169083151502179055508173ffffffffffffffffffffffffffffffffffffffff168373ffffffffffffffffffffffffffffffffffffffff167f17307eab39ab6107e8899845ad3d59bd9653f200f220920489ca2b5937696c3183604051611ee991906132d2565b60405180910390a3505050565b611f0184848461194a565b611f0d84848484612580565b611f4c576040517f08c379a0000000000000000000000000000000000000000000000000000000008152600401611f43906144ee565b60405180910390fd5b50505050565b6060611f5d8261173f565b611f9c576040517f08c379a0000000000000000000000000000000000000000000000000000000008152600401611f9390614580565b60405180910390fd5b6000600660008481526020019081526020016000208054611fbc9061395d565b80601f0160208091040260200160405190810160405280929190818152602001828054611fe89061395d565b80156120355780601f1061200a57610100808354040283529160200191612035565b820191906000526020600020905b81548152906001019060200180831161201857829003601f168201915b505050505090506000612046611cdd565b905060008151141561205c57819250505061209f565b6000825111156120915780826040516020016120799291906145a0565b6040516020818303038152906040529250505061209f565b61209a84612708565b925050505b919050565b60006120b2826000016127af565b9050919050565b60006120c583836127c0565b61211e578260000182908060018154018082558091505060019003906000526020600020016000909190919091505582600001805490508360010160008481526020019081526020016000208190555060019050612123565b600090505b92915050565b60007f5a05180f000000000000000000000000000000000000000000000000000000007bffffffffffffffffffffffffffffffffffffffffffffffffffffffff1916827bffffffffffffffffffffffffffffffffffffffffffffffffffffffff1916148061219c575061219b826127e3565b5b9050919050565b6121ae83838361285d565b505050565b6060600060028360026121c691906145c4565b6121d091906142ac565b67ffffffffffffffff8111156121e9576121e8613700565b5b6040519080825280601f01601f19166020018201604052801561221b5781602001600182028036833780820191505090505b5090507f30000000000000000000000000000000000000000000000000000000000000008160008151811061225357612252613d8d565b5b60200101907effffffffffffffffffffffffffffffffffffffffffffffffffffffffffffff1916908160001a9053507f7800000000000000000000000000000000000000000000000000000000000000816001815181106122b7576122b6613d8d565b5b60200101907effffffffffffffffffffffffffffffffffffffffffffffffffffffffffffff1916908160001a905350600060018460026122f791906145c4565b61230191906142ac565b90505b60018111156123a1577f3031323334353637383961626364656600000000000000000000000000000000600f86166010811061234357612342613d8d565b5b1a60f81b82828151811061235a57612359613d8d565b5b60200101907effffffffffffffffffffffffffffffffffffffffffffffffffffffffffffff1916908160001a905350600485901c94508061239a9061461e565b9050612304565b50600084146123e5576040517f08c379a00000000000000000000000000000000000000000000000000000000081526004016123dc90614694565b60405180910390fd5b8091505092915050565b6123f98282610f65565b156124cd5760006007600084815260200190815260200160002060000160008373ffffffffffffffffffffffffffffffffffffffff1673ffffffffffffffffffffffffffffffffffffffff16815260200190815260200160002060006101000a81548160ff0219169083151502179055506124726117ab565b73ffffffffffffffffffffffffffffffffffffffff168173ffffffffffffffffffffffffffffffffffffffff16837ff6391f5c32d9c69d2a47ea670b442974b53935d1edc7fd64eb21e047a839171b60405160405180910390a45b5050565b60006124f9836000018373ffffffffffffffffffffffffffffffffffffffff1660001b612971565b905092915050565b6001600d600083815260200190815260200160002060006101000a81548160ff021916908315150217905550600f54600e6000838152602001908152602001600020819055506125518282612a85565b5050565b600082600001828154811061256d5761256c613d8d565b5b9060005260206000200154905092915050565b60006125a18473ffffffffffffffffffffffffffffffffffffffff16612c53565b156126fb578373ffffffffffffffffffffffffffffffffffffffff1663150b7a026125ca6117ab565b8786866040518563ffffffff1660e01b81526004016125ec9493929190614709565b6020604051808303816000875af192505050801561262857506040513d601f19601f82011682018060405250810190612625919061476a565b60015b6126ab573d8060008114612658576040519150601f19603f3d011682016040523d82523d6000602084013e61265d565b606091505b506000815114156126a3576040517f08c379a000000000000000000000000000000000000000000000000000000000815260040161269a906144ee565b60405180910390fd5b805181602001fd5b63150b7a0260e01b7bffffffffffffffffffffffffffffffffffffffffffffffffffffffff1916817bffffffffffffffffffffffffffffffffffffffffffffffffffffffff191614915050612700565b600190505b949350505050565b60606127138261173f565b612752576040517f08c379a000000000000000000000000000000000000000000000000000000000815260040161274990614809565b60405180910390fd5b600061275c611cdd565b9050600081511161277c57604051806020016040528060008152506127a7565b8061278684612c66565b6040516020016127979291906145a0565b6040516020818303038152906040525b915050919050565b600081600001805490509050919050565b600080836001016000848152602001908152602001600020541415905092915050565b60007f7965db0b000000000000000000000000000000000000000000000000000000007bffffffffffffffffffffffffffffffffffffffffffffffffffffffff1916827bffffffffffffffffffffffffffffffffffffffffffffffffffffffff19161480612856575061285582612dc7565b5b9050919050565b612868838383612ea9565b600073ffffffffffffffffffffffffffffffffffffffff168373ffffffffffffffffffffffffffffffffffffffff1614156128ab576128a681612eae565b6128ea565b8173ffffffffffffffffffffffffffffffffffffffff168373ffffffffffffffffffffffffffffffffffffffff16146128e9576128e88382612ef7565b5b5b600073ffffffffffffffffffffffffffffffffffffffff168273ffffffffffffffffffffffffffffffffffffffff16141561292d5761292881613064565b61296c565b8273ffffffffffffffffffffffffffffffffffffffff168273ffffffffffffffffffffffffffffffffffffffff161461296b5761296a8282613135565b5b5b505050565b60008083600101600084815260200190815260200160002054905060008114612a795760006001826129a39190614278565b90506000600186600001805490506129bb9190614278565b9050818114612a2a5760008660000182815481106129dc576129db613d8d565b5b9060005260206000200154905080876000018481548110612a00576129ff613d8d565b5b90600052602060002001819055508387600101600083815260200190815260200160002081905550505b85600001805480612a3e57612a3d614829565b5b600190038181906000526020600020016000905590558560010160008681526020019081526020016000206000905560019350505050612a7f565b60009150505b92915050565b600073ffffffffffffffffffffffffffffffffffffffff168273ffffffffffffffffffffffffffffffffffffffff161415612af5576040517f08c379a0000000000000000000000000000000000000000000000000000000008152600401612aec906148a4565b60405180910390fd5b612afe8161173f565b15612b3e576040517f08c379a0000000000000000000000000000000000000000000000000000000008152600401612b3590614910565b60405180910390fd5b612b4a600083836121a3565b6001600360008473ffffffffffffffffffffffffffffffffffffffff1673ffffffffffffffffffffffffffffffffffffffff1681526020019081526020016000206000828254612b9a91906142ac565b92505081905550816002600083815260200190815260200160002060006101000a81548173ffffffffffffffffffffffffffffffffffffffff021916908373ffffffffffffffffffffffffffffffffffffffff160217905550808273ffffffffffffffffffffffffffffffffffffffff16600073ffffffffffffffffffffffffffffffffffffffff167fddf252ad1be2c89b69c2b068fc378daa952ba7f163c4a11628f55a4df523b3ef60405160405180910390a45050565b600080823b905060008111915050919050565b60606000821415612cae576040518060400160405280600181526020017f30000000000000000000000000000000000000000000000000000000000000008152509050612dc2565b600082905060005b60008214612ce0578080612cc99061400d565b915050600a82612cd9919061495f565b9150612cb6565b60008167ffffffffffffffff811115612cfc57612cfb613700565b5b6040519080825280601f01601f191660200182016040528015612d2e5781602001600182028036833780820191505090505b5090505b60008514612dbb57600182612d479190614278565b9150600a85612d569190614990565b6030612d6291906142ac565b60f81b818381518110612d7857612d77613d8d565b5b60200101907effffffffffffffffffffffffffffffffffffffffffffffffffffffffffffff1916908160001a905350600a85612db4919061495f565b9450612d32565b8093505050505b919050565b60007f80ac58cd000000000000000000000000000000000000000000000000000000007bffffffffffffffffffffffffffffffffffffffffffffffffffffffff1916827bffffffffffffffffffffffffffffffffffffffffffffffffffffffff19161480612e9257507f5b5e139f000000000000000000000000000000000000000000000000000000007bffffffffffffffffffffffffffffffffffffffffffffffffffffffff1916827bffffffffffffffffffffffffffffffffffffffffffffffffffffffff1916145b80612ea25750612ea1826131b4565b5b9050919050565b505050565b600b80549050600c600083815260200190815260200160002081905550600b81908060018154018082558091505060019003906000526020600020016000909190919091505550565b60006001612f0484610e54565b612f0e9190614278565b90506000600a6000848152602001908152602001600020549050818114612ff3576000600960008673ffffffffffffffffffffffffffffffffffffffff1673ffffffffffffffffffffffffffffffffffffffff168152602001908152602001600020600084815260200190815260200160002054905080600960008773ffffffffffffffffffffffffffffffffffffffff1673ffffffffffffffffffffffffffffffffffffffff16815260200190815260200160002060008481526020019081526020016000208190555081600a600083815260200190815260200160002081905550505b600a600084815260200190815260200160002060009055600960008573ffffffffffffffffffffffffffffffffffffffff1673ffffffffffffffffffffffffffffffffffffffff16815260200190815260200160002060008381526020019081526020016000206000905550505050565b60006001600b805490506130789190614278565b90506000600c60008481526020019081526020016000205490506000600b83815481106130a8576130a7613d8d565b5b9060005260206000200154905080600b83815481106130ca576130c9613d8d565b5b906000526020600020018190555081600c600083815260200190815260200160002081905550600c600085815260200190815260200160002060009055600b80548061311957613118614829565b5b6001900381819060005260206000200160009055905550505050565b600061314083610e54565b905081600960008573ffffffffffffffffffffffffffffffffffffffff1673ffffffffffffffffffffffffffffffffffffffff16815260200190815260200160002060008381526020019081526020016000208190555080600a600084815260200190815260200160002081905550505050565b60007f01ffc9a7000000000000000000000000000000000000000000000000000000007bffffffffffffffffffffffffffffffffffffffffffffffffffffffff1916827bffffffffffffffffffffffffffffffffffffffffffffffffffffffff1916149050919050565b6000604051905090565b600080fd5b600080fd5b60007fffffffff0000000000000000000000000000000000000000000000000000000082169050919050565b61326781613232565b811461327257600080fd5b50565b6000813590506132848161325e565b92915050565b6000602082840312156132a05761329f613228565b5b60006132ae84828501613275565b91505092915050565b60008115159050919050565b6132cc816132b7565b82525050565b60006020820190506132e760008301846132c3565b92915050565b600081519050919050565b600082825260208201905092915050565b60005b8381101561332757808201518184015260208101905061330c565b83811115613336576000848401525b50505050565b6000601f19601f8301169050919050565b6000613358826132ed565b61336281856132f8565b9350613372818560208601613309565b61337b8161333c565b840191505092915050565b600060208201905081810360008301526133a0818461334d565b905092915050565b6000819050919050565b6133bb816133a8565b81146133c657600080fd5b50565b6000813590506133d8816133b2565b92915050565b6000602082840312156133f4576133f3613228565b5b6000613402848285016133c9565b91505092915050565b600073ffffffffffffffffffffffffffffffffffffffff82169050919050565b60006134368261340b565b9050919050565b6134468161342b565b82525050565b6000602082019050613461600083018461343d565b92915050565b6134708161342b565b811461347b57600080fd5b50565b60008135905061348d81613467565b92915050565b600080604083850312156134aa576134a9613228565b5b60006134b88582860161347e565b92505060206134c9858286016133c9565b9150509250929050565b6134dc816133a8565b82525050565b60006020820190506134f760008301846134d3565b92915050565b60008060006060848603121561351657613515613228565b5b60006135248682870161347e565b93505060206135358682870161347e565b9250506040613546868287016133c9565b9150509250925092565b6000819050919050565b61356381613550565b811461356e57600080fd5b50565b6000813590506135808161355a565b92915050565b60006020828403121561359c5761359b613228565b5b60006135aa84828501613571565b91505092915050565b6135bc81613550565b82525050565b60006020820190506135d760008301846135b3565b92915050565b600080604083850312156135f4576135f3613228565b5b600061360285828601613571565b92505060206136138582860161347e565b9150509250929050565b60006020828403121561363357613632613228565b5b60006136418482850161347e565b91505092915050565b6000806040838503121561366157613660613228565b5b600061366f85828601613571565b9250506020613680858286016133c9565b9150509250929050565b613693816132b7565b811461369e57600080fd5b50565b6000813590506136b08161368a565b92915050565b600080604083850312156136cd576136cc613228565b5b60006136db8582860161347e565b92505060206136ec858286016136a1565b9150509250929050565b600080fd5b600080fd5b7f4e487b7100000000000000000000000000000000000000000000000000000000600052604160045260246000fd5b6137388261333c565b810181811067ffffffffffffffff8211171561375757613756613700565b5b80604052505050565b600061376a61321e565b9050613776828261372f565b919050565b600067ffffffffffffffff82111561379657613795613700565b5b61379f8261333c565b9050602081019050919050565b82818337600083830152505050565b60006137ce6137c98461377b565b613760565b9050828152602081018484840111156137ea576137e96136fb565b5b6137f58482856137ac565b509392505050565b600082601f830112613812576138116136f6565b5b81356138228482602086016137bb565b91505092915050565b6000806000806080858703121561384557613844613228565b5b60006138538782880161347e565b94505060206138648782880161347e565b9350506040613875878288016133c9565b925050606085013567ffffffffffffffff8111156138965761389561322d565b5b6138a2878288016137fd565b91505092959194509250565b600080604083850312156138c5576138c4613228565b5b60006138d38582860161347e565b92505060206138e48582860161347e565b9150509250929050565b6000806040838503121561390557613904613228565b5b6000613913858286016133c9565b9250506020613924858286016133c9565b9150509250929050565b7f4e487b7100000000000000000000000000000000000000000000000000000000600052602260045260246000fd5b6000600282049050600182168061397557607f821691505b602082108114156139895761398861392e565b5b50919050565b7f4552433732313a20617070726f76656420717565727920666f72206e6f6e657860008201527f697374656e7420746f6b656e0000000000000000000000000000000000000000602082015250565b60006139eb602c836132f8565b91506139f68261398f565b604082019050919050565b60006020820190508181036000830152613a1a816139de565b9050919050565b7f4552433732313a20617070726f76616c20746f2063757272656e74206f776e6560008201527f7200000000000000000000000000000000000000000000000000000000000000602082015250565b6000613a7d6021836132f8565b9150613a8882613a21565b604082019050919050565b60006020820190508181036000830152613aac81613a70565b9050919050565b7f4552433732313a20617070726f76652063616c6c6572206973206e6f74206f7760008201527f6e6572206e6f7220617070726f76656420666f7220616c6c0000000000000000602082015250565b6000613b0f6038836132f8565b9150613b1a82613ab3565b604082019050919050565b60006020820190508181036000830152613b3e81613b02565b9050919050565b7f4552433732313a207472616e736665722063616c6c6572206973206e6f74206f60008201527f776e6572206e6f7220617070726f766564000000000000000000000000000000602082015250565b6000613ba16031836132f8565b9150613bac82613b45565b604082019050919050565b60006020820190508181036000830152613bd081613b94565b9050919050565b7f455243373231456e756d657261626c653a206f776e657220696e646578206f7560008201527f74206f6620626f756e6473000000000000000000000000000000000000000000602082015250565b6000613c33602b836132f8565b9150613c3e82613bd7565b604082019050919050565b60006020820190508181036000830152613c6281613c26565b9050919050565b7f416363657373436f6e74726f6c3a2063616e206f6e6c792072656e6f756e636560008201527f20726f6c657320666f722073656c660000000000000000000000000000000000602082015250565b6000613cc5602f836132f8565b9150613cd082613c69565b604082019050919050565b60006020820190508181036000830152613cf481613cb8565b9050919050565b7f455243373231456e756d657261626c653a20676c6f62616c20696e646578206f60008201527f7574206f6620626f756e64730000000000000000000000000000000000000000602082015250565b6000613d57602c836132f8565b9150613d6282613cfb565b604082019050919050565b60006020820190508181036000830152613d8681613d4a565b9050919050565b7f4e487b7100000000000000000000000000000000000000000000000000000000600052603260045260246000fd5b7f4552433732313a206f776e657220717565727920666f72206e6f6e657869737460008201527f656e7420746f6b656e0000000000000000000000000000000000000000000000602082015250565b6000613e186029836132f8565b9150613e2382613dbc565b604082019050919050565b60006020820190508181036000830152613e4781613e0b565b9050919050565b7f4561726c7941636365737347616d653a206d7573742068617665206d696e746560008201527f7220726f6c6520746f206d696e74000000000000000000000000000000000000602082015250565b6000613eaa602e836132f8565b9150613eb582613e4e565b604082019050919050565b60006020820190508181036000830152613ed981613e9d565b9050919050565b7f4552433732313a2062616c616e636520717565727920666f7220746865207a6560008201527f726f206164647265737300000000000000000000000000000000000000000000602082015250565b6000613f3c602a836132f8565b9150613f4782613ee0565b604082019050919050565b60006020820190508181036000830152613f6b81613f2f565b9050919050565b7f42757961626c653a2063616c6c6572206973206e6f74206f776e657200000000600082015250565b6000613fa8601c836132f8565b9150613fb382613f72565b602082019050919050565b60006020820190508181036000830152613fd781613f9b565b9050919050565b7f4e487b7100000000000000000000000000000000000000000000000000000000600052601160045260246000fd5b6000614018826133a8565b91507fffffffffffffffffffffffffffffffffffffffffffffffffffffffffffffffff82141561404b5761404a613fde565b5b600182019050919050565b7f42757961626c653a20746f6b656e206973206e6f7420666f722073616c650000600082015250565b600061408c601e836132f8565b915061409782614056565b602082019050919050565b600060208201905081810360008301526140bb8161407f565b9050919050565b7f4552433732313a206f70657261746f7220717565727920666f72206e6f6e657860008201527f697374656e7420746f6b656e0000000000000000000000000000000000000000602082015250565b600061411e602c836132f8565b9150614129826140c2565b604082019050919050565b6000602082019050818103600083015261414d81614111565b9050919050565b7f4552433732313a207472616e73666572206f6620746f6b656e2074686174206960008201527f73206e6f74206f776e0000000000000000000000000000000000000000000000602082015250565b60006141b06029836132f8565b91506141bb82614154565b604082019050919050565b600060208201905081810360008301526141df816141a3565b9050919050565b7f4552433732313a207472616e7366657220746f20746865207a65726f2061646460008201527f7265737300000000000000000000000000000000000000000000000000000000602082015250565b60006142426024836132f8565b915061424d826141e6565b604082019050919050565b6000602082019050818103600083015261427181614235565b9050919050565b6000614283826133a8565b915061428e836133a8565b9250828210156142a1576142a0613fde565b5b828203905092915050565b60006142b7826133a8565b91506142c2836133a8565b9250827fffffffffffffffffffffffffffffffffffffffffffffffffffffffffffffffff038211156142f7576142f6613fde565b5b828201905092915050565b600081905092915050565b7f416363657373436f6e74726f6c3a206163636f756e7420000000000000000000600082015250565b6000614343601783614302565b915061434e8261430d565b601782019050919050565b6000614364826132ed565b61436e8185614302565b935061437e818560208601613309565b80840191505092915050565b7f206973206d697373696e6720726f6c6520000000000000000000000000000000600082015250565b60006143c0601183614302565b91506143cb8261438a565b601182019050919050565b60006143e182614336565b91506143ed8285614359565b91506143f8826143b3565b91506144048284614359565b91508190509392505050565b7f4552433732313a20617070726f766520746f2063616c6c657200000000000000600082015250565b60006144466019836132f8565b915061445182614410565b602082019050919050565b6000602082019050818103600083015261447581614439565b9050919050565b7f4552433732313a207472616e7366657220746f206e6f6e20455243373231526560008201527f63656976657220696d706c656d656e7465720000000000000000000000000000602082015250565b60006144d86032836132f8565b91506144e38261447c565b604082019050919050565b60006020820190508181036000830152614507816144cb565b9050919050565b7f45524337323155524953746f726167653a2055524920717565727920666f722060008201527f6e6f6e6578697374656e7420746f6b656e000000000000000000000000000000602082015250565b600061456a6031836132f8565b91506145758261450e565b604082019050919050565b600060208201905081810360008301526145998161455d565b9050919050565b60006145ac8285614359565b91506145b88284614359565b91508190509392505050565b60006145cf826133a8565b91506145da836133a8565b9250817fffffffffffffffffffffffffffffffffffffffffffffffffffffffffffffffff048311821515161561461357614612613fde565b5b828202905092915050565b6000614629826133a8565b9150600082141561463d5761463c613fde565b5b600182039050919050565b7f537472696e67733a20686578206c656e67746820696e73756666696369656e74600082015250565b600061467e6020836132f8565b915061468982614648565b602082019050919050565b600060208201905081810360008301526146ad81614671565b9050919050565b600081519050919050565b600082825260208201905092915050565b60006146db826146b4565b6146e581856146bf565b93506146f5818560208601613309565b6146fe8161333c565b840191505092915050565b600060808201905061471e600083018761343d565b61472b602083018661343d565b61473860408301856134d3565b818103606083015261474a81846146d0565b905095945050505050565b6000815190506147648161325e565b92915050565b6000602082840312156147805761477f613228565b5b600061478e84828501614755565b91505092915050565b7f4552433732314d657461646174613a2055524920717565727920666f72206e6f60008201527f6e6578697374656e7420746f6b656e0000000000000000000000000000000000602082015250565b60006147f3602f836132f8565b91506147fe82614797565b604082019050919050565b60006020820190508181036000830152614822816147e6565b9050919050565b7f4e487b7100000000000000000000000000000000000000000000000000000000600052603160045260246000fd5b7f4552433732313a206d696e7420746f20746865207a65726f2061646472657373600082015250565b600061488e6020836132f8565b915061489982614858565b602082019050919050565b600060208201905081810360008301526148bd81614881565b9050919050565b7f4552433732313a20746f6b656e20616c7265616479206d696e74656400000000600082015250565b60006148fa601c836132f8565b9150614905826148c4565b602082019050919050565b60006020820190508181036000830152614929816148ed565b9050919050565b7f4e487b7100000000000000000000000000000000000000000000000000000000600052601260045260246000fd5b600061496a826133a8565b9150614975836133a8565b92508261498557614984614930565b5b828204905092915050565b600061499b826133a8565b91506149a6836133a8565b9250826149b6576149b5614930565b5b82820690509291505056fea2646970667358221220d36e2181001fe2b693d0c810e356ed3fe9c96e0bf23233bfa86dbd67f9d75b1064736f6c634300080a0033",
  "immutableReferences": {},
  "source": "// contracts/EarlyAccessGame.sol\n// SPDX-License-Identifier: MIT\npragma solidity ^0.8.0;\n\nimport \"@openzeppelin/contracts/token/ERC721/extensions/ERC721URIStorage.sol\";\nimport \"@openzeppelin/contracts/token/ERC721/extensions/ERC721Enumerable.sol\";\nimport \"@openzeppelin/contracts/access/AccessControlEnumerable.sol\";\nimport \"@openzeppelin/contracts/utils/Counters.sol\";\nimport \"./Buyable.sol\";\n\ncontract EarlyAccessGame is\n    ERC721URIStorage,\n    AccessControlEnumerable,\n    ERC721Enumerable,\n    Buyable\n{\n    using Counters for Counters.Counter;\n    Counters.Counter private _tokenIds;\n\n    bytes32 public constant MINTER_ROLE = keccak256(\"MINTER_ROLE\");\n    string private _baseTokenURI;\n\n    constructor(\n        string memory name,\n        string memory symbol,\n        string memory baseTokenURI,\n        uint256 basePrice\n    ) ERC721(name, symbol) {\n        _baseTokenURI = baseTokenURI;\n        _basePrice = basePrice;\n        _setupRole(MINTER_ROLE, _msgSender());\n    }\n\n    function _baseURI()\n        internal\n        view\n        virtual\n        override(ERC721)\n        returns (string memory)\n    {\n        return _baseTokenURI;\n    }\n\n    function mintMultiple(address to, uint256 count) public virtual {\n        require(\n            hasRole(MINTER_ROLE, _msgSender()),\n            \"EarlyAccessGame: must have minter role to mint\"\n        );\n        for (uint256 i = 0; i < count; i++) {\n            mint(to);\n        }\n    }\n\n    function mint(address to) public virtual {\n        require(\n            hasRole(MINTER_ROLE, _msgSender()),\n            \"EarlyAccessGame: must have minter role to mint\"\n        );\n        _mint(to, _tokenIds.current());\n        _tokenIds.increment();\n    }\n\n    function _mint(address to, uint256 tokenId)\n        internal\n        virtual\n        override(Buyable, ERC721)\n    {\n        super._mint(to, tokenId);\n    }\n\n    function supportsInterface(bytes4 interfaceId)\n        public\n        view\n        virtual\n        override(AccessControlEnumerable, ERC721, ERC721Enumerable)\n        returns (bool)\n    {\n        return super.supportsInterface(interfaceId);\n    }\n\n    function _beforeTokenTransfer(\n        address from,\n        address to,\n        uint256 tokenId\n    ) internal virtual override(ERC721, ERC721Enumerable) {\n        super._beforeTokenTransfer(from, to, tokenId);\n    }\n\n    function _burn(uint256 tokenId)\n        internal\n        virtual\n        override(ERC721URIStorage, ERC721)\n    {\n        return super._burn(tokenId);\n    }\n\n    function tokenURI(uint256 tokenId)\n        public\n        view\n        virtual\n        override(ERC721URIStorage, ERC721)\n        returns (string memory)\n    {\n        return super.tokenURI(tokenId);\n    }\n\n    function baseURI() public view returns (string memory) {\n        return _baseURI();\n    }\n}\n",
  "sourcePath": "/home/chriamue/workspace/nft-login/nft-marketplace/src/contracts/EarlyAccessGame.sol",
  "compiler": {
    "name": "solc",
    "version": "0.8.10+commit.fc410830.Emscripten.clang"
  },
  "schemaVersion": "3.4.3",
  "updatedAt": "2022-04-06T06:47:31.516Z",
  "networkType": "ethereum",
  "devdoc": {
    "kind": "dev",
    "methods": {
      "approve(address,uint256)": {
        "details": "See {IERC721-approve}."
      },
      "balanceOf(address)": {
        "details": "See {IERC721-balanceOf}."
      },
      "getApproved(uint256)": {
        "details": "See {IERC721-getApproved}."
      },
      "getRoleAdmin(bytes32)": {
        "details": "Returns the admin role that controls `role`. See {grantRole} and {revokeRole}. To change a role's admin, use {_setRoleAdmin}."
      },
      "getRoleMember(bytes32,uint256)": {
        "details": "Returns one of the accounts that have `role`. `index` must be a value between 0 and {getRoleMemberCount}, non-inclusive. Role bearers are not sorted in any particular way, and their ordering may change at any point. WARNING: When using {getRoleMember} and {getRoleMemberCount}, make sure you perform all queries on the same block. See the following https://forum.openzeppelin.com/t/iterating-over-elements-on-enumerableset-in-openzeppelin-contracts/2296[forum post] for more information."
      },
      "getRoleMemberCount(bytes32)": {
        "details": "Returns the number of accounts that have `role`. Can be used together with {getRoleMember} to enumerate all bearers of a role."
      },
      "grantRole(bytes32,address)": {
        "details": "Grants `role` to `account`. If `account` had not been already granted `role`, emits a {RoleGranted} event. Requirements: - the caller must have ``role``'s admin role."
      },
      "hasRole(bytes32,address)": {
        "details": "Returns `true` if `account` has been granted `role`."
      },
      "isApprovedForAll(address,address)": {
        "details": "See {IERC721-isApprovedForAll}."
      },
      "name()": {
        "details": "See {IERC721Metadata-name}."
      },
      "ownerOf(uint256)": {
        "details": "See {IERC721-ownerOf}."
      },
      "renounceRole(bytes32,address)": {
        "details": "Revokes `role` from the calling account. Roles are often managed via {grantRole} and {revokeRole}: this function's purpose is to provide a mechanism for accounts to lose their privileges if they are compromised (such as when a trusted device is misplaced). If the calling account had been revoked `role`, emits a {RoleRevoked} event. Requirements: - the caller must be `account`."
      },
      "revokeRole(bytes32,address)": {
        "details": "Revokes `role` from `account`. If `account` had been granted `role`, emits a {RoleRevoked} event. Requirements: - the caller must have ``role``'s admin role."
      },
      "safeTransferFrom(address,address,uint256)": {
        "details": "See {IERC721-safeTransferFrom}."
      },
      "safeTransferFrom(address,address,uint256,bytes)": {
        "details": "See {IERC721-safeTransferFrom}."
      },
      "setApprovalForAll(address,bool)": {
        "details": "See {IERC721-setApprovalForAll}."
      },
      "symbol()": {
        "details": "See {IERC721Metadata-symbol}."
      },
      "tokenByIndex(uint256)": {
        "details": "See {IERC721Enumerable-tokenByIndex}."
      },
      "tokenOfOwnerByIndex(address,uint256)": {
        "details": "See {IERC721Enumerable-tokenOfOwnerByIndex}."
      },
      "totalSupply()": {
        "details": "See {IERC721Enumerable-totalSupply}."
      },
      "transferFrom(address,address,uint256)": {
        "details": "See {IERC721-transferFrom}."
      }
    },
    "version": 1
  },
  "userdoc": {
    "kind": "user",
    "methods": {},
    "version": 1
  }
}